:020000040800F2
:1000000060070020B90F0008750300087703000897
:100010007B0300087F030008830300080000000042
:10002000000000000000000000000000870300083E
:1000300089030008000000008B0300088D030008FE
:10004000D30F0008D30F0008D30F0008D30F000808
:10005000D30F0008D30F0008D30F0008D30F0008F8
:10006000D30F0008D30F0008D30F0008D30F0008E8
:10007000D30F0008D30F0008D30F0008D30F0008D8
:10008000D30F0008D30F0008D30F0008D30F0008C8
:10009000D30F0008D30F0008D30F0008D30F0008B8
:1000A000D30F0008D30F0008D30F0008D30F0008A8
:1000B000D30F0008D30F0008D30F0008D30F000898
:1000C000D30F0008D30F0008D30F0008D30F000888
:1000D000D30F00082F0F0008D30F0008D30F00081C
:1000E000D30F0008D30F0008D30F0008D30F000868
:1000F000D30F0008D30F0008D30F0008D30F000858
:10010000D30F0008D30F0008D30F0008D30F000847
:10011000D30F0008D30F0008D30F0008D30F000837
:10012000D30F0008D30F0008D30F0008D30F000827
:1001300000F002F800F03AF80AA090E8000C8244BF
:100140008344AAF10107DA4501D100F02FF8AFF29C
:10015000090EBAE80F0013F0010F18BFFB1A43F0A5
:1001600001031847F826000018270000103A24BFA2
:1001700078C878C1FAD8520724BF30C830C144BF0C
:1001800004680C607047000000230024002500264E
:10019000103A28BF78C1FBD8520728BF30C148BFEA
:1001A0000B6070471FB51FBD10B510BD01F01BFDE2
:1001B0001146FFF7F7FF00F009F801F039FD03B42D
:1001C000FFF7F2FF03BC00F057FE0000002500F02F
:1001D000E9FD00F0CDF900F0B5FC00F074FBA8E0FB
:1001E00000F0EAF90446002C6FD0112C6ED2DFE843
:1001F00004F09B09121B242D363F48515A636E7739
:10020000808992004BA500F042FB2A460421002081
:1002100000F0EAFB89E048A500F039FB2A460421FA
:10022000002000F0E1FB80E044A500F030FB2A460E
:100230000421002000F0D8FB77E041A500F027FB67
:100240002A460421002000F0CFFB6EE03DA500F01F
:100250001EFB2A460421002000F0C6FB65E03AA5FB
:1002600000F015FB2A460421002000F0BDFB5CE0F5
:1002700036A500F00CFB2A460421002000F0B4FB58
:1002800053E033A500F003FB2A460421002000F0D0
:10029000ABFB4AE02FA500F0FAFA2A460421002021
:1002A00000F0A2FB41E02CA500F0F1FA2A4604215F
:1002B000002000F099FB38E028A500F0E8FA2A4673
:1002C0000421002000F090FB2FE02FE02CE024A57B
:1002D00000F0DDFA2A460421002000F085FB24E02E
:1002E00020A500F0D4FA2A460421002000F07CFB6F
:1002F0001BE01DA500F0CBFA2A460421002000F0E7
:1003000073FB12E019A500F0C2FA2A46042100206E
:1003100000F06AFB09E016A500F0B9FA2A460421AC
:10032000002000F061FB00E000BF02E00A2000F0C6
:1003300076FD55E73000000031000000320000007B
:1003400033000000340000003500000036000000DB
:100350003700000038000000390000003130000094
:1003600031310000313200003133000031340000FF
:1003700031350000704700BFFEE700BFFEE700BF59
:10038000FEE700BFFEE77047704770477047000008
:100390000CB50020019000906C48006840F480305B
:1003A0006A49086000BF6948006800F400300090A6
:1003B0000198401C0190009818B90198B0F5A06F01
:1003C000F1D16248006800F4003010B101200090C3
:1003D00001E0002000900098012843D15C480068AB
:1003E00040F010005A4908600846006820F00300F9
:1003F00008600846006840F0020008605348406802
:10040000524948600846406848600846406840F4E1
:10041000806048600846406820F47C1048600846C8
:10042000406840F4E81048600846006840F080707A
:10043000086000BF4548006800F000700028F9D04F
:100440004248406820F00300404948600846406840
:1004500040F00200486000BF3C48406800F00C00DB
:100460000828F9D10CBD10B5FFF792FF10BD10B5EB
:100470003648006840F0010034490860084640688A
:10048000344908403149486008460068324908400C
:100490002E4908600846006820F48020086008465D
:1004A000406820F4FE0048604FF41F008860FFF7AA
:1004B000DAFF4FF000602949086010BD10B5002137
:1004C00000200022214B5B6803F00C0121B10429BC
:1004D00006D0082928D107E0214B224C236027E0D1
:1004E0001F4B204C236023E0184B5B6803F4701013
:1004F000164B5B6803F48032022303EB904022B971
:10050000194B4343174C23600DE0104B5B6803F419
:10051000003323B1144B4343124C236003E0104BD0
:100520004343104C236003E00D4B0E4C236000BF8F
:1005300000BF064B5B68C3F303130C4CE15C094B33
:100540001B68CB40074C236010BD00000010024028
:10055000002002400000FFF8FFFFF6FE08ED00E07B
:1005600000127A000000002000093D000400002075
:1005700008B50121802001F0C9F80F20ADF8000076
:1005800010208DF8030003208DF80200694678489A
:1005900000F000FEF020ADF8000048208DF80300C8
:1005A00003208DF802006946714800F0F3FDF02148
:1005B0006F4800F09CFE08BD70B50025FE216C4818
:1005C00000F09EFE6A4800F081FEC4B204F0F00420
:1005D000F02C29D00A2000F022FC654800F076FEBD
:1005E000C4B204F0F004F02C1ED0614800F06EFE9E
:1005F000C4B27E2C0BD0BE2C07D0DE2C03D0EE2C48
:1006000007D1012506E0022504E0032502E00425C8
:1006100000E000BF00BF05E0554800F057FEC4B23F
:1006200004F0F004F02CF7D1FD21514800F068FEF1
:100630004F4800F04BFEC4B204F0F004F02C29D077
:100640000A2000F0ECFB4A4800F040FEC4B204F07F
:10065000F004F02C1ED0464800F038FEC4B27D2CC9
:100660000BD0BD2C07D0DD2C03D0ED2C07D10525F8
:1006700006E0062504E0072502E0082500E000BFAB
:1006800000BF05E03A4800F021FEC4B204F0F004D7
:10069000F02CF7D1FB21364800F032FE344800F050
:1006A00015FEC4B204F0F004F02C29D00A2000F0AA
:1006B000B6FB2F4800F00AFEC4B204F0F004F02CA0
:1006C0001ED02B4800F002FEC4B27B2C0BD0BB2CFA
:1006D00007D0DB2C03D0EB2C07D1092506E00A2537
:1006E00004E00B2502E00C2500E000BF00BF05E0A0
:1006F0001F4800F0EBFDC4B204F0F004F02CF7D179
:10070000F7211B4800F0FCFD194800F0DFFDC4B2E2
:1007100004F0F004F02C29D00A2000F080FB1448EB
:1007200000F0D4FDC4B204F0F004F02C1ED0104848
:1007300000F0CCFDC4B2772C0BD0B72C07D0D72C4F
:1007400003D0E72C07D10D2506E00E2504E00F2588
:1007500002E0102500E000BF00BF05E0044800F003
:10076000B5FDC4B204F0F004F02CF7D1284670BDFA
:10077000001C014070B50446002518E004F080001C
:1007800018B10120EA49086002E00020E849086049
:100790000120E749091F0860042000F01CFB00202D
:1007A000E449C1F898016006040E681CC5B2082D22
:1007B000E4DB0120DE490860DE49C1F8980104202D
:1007C00000F009FB0020DA49091F086070BD10B570
:1007D000044600F0CEF9782000F07DFA00F00AFA25
:1007E000402000F078FA00F005FA204600F073FA95
:1007F00000F000FA00F0DDF910BD10B5044600F07D
:10080000B8F9782000F067FA00F0F4F908B100BFF9
:10081000FEE7002000F05FFA00F0ECF9204600F05F
:100820005AFA00F0E7F900F0C4F910BD70B50446BB
:100830000D4605F1B001C8B2FFF7DFFF102141EA14
:100840001410FFF7DAFF04F00F0141F00100FFF789
:10085000D4FF70BD70B50646002415E004F1B00168
:10086000C8B2FFF7CAFF0120FFF7C7FF1020FFF74C
:10087000C4FF002504E03046FFF7A9FF681CC5B29D
:10088000802DF8DB601CC4B2082CE7DB70BD70B5AE
:10089000002415E004F1B001C8B2FFF7AEFF01205B
:1008A000FFF7ABFF1020FFF7A8FF002504E00020B2
:1008B000FFF78DFF681CC5B2802DF8DB601CC4B249
:1008C000082CE7DB70BD10B54FF4FA7000F0A7FA02
:1008D000AE20FFF792FF0020FFF78FFF1020FFF7F9
:1008E0008CFF4020FFF789FF8120FFF786FFCF2094
:1008F000FFF783FFA120FFF780FFC820FFF77DFFF0
:10090000A620FFF77AFFA820FFF777FF3F20FFF729
:1009100074FFD320FFF771FF0020FFF76EFFD52093
:10092000FFF76BFF8020FFF768FFD920FFF765FF17
:10093000F120FFF762FFDA20FFF75FFF1220FFF7D9
:100940005CFFDB20FFF759FF4020FFF756FF202018
:10095000FFF753FF0220FFF750FF8D20FFF74DFFF9
:100960001420FFF74AFFA420FFF747FFA620FFF758
:1009700044FFAF20FFF741FF0020FFF76BFF00218E
:100980000846FFF753FF10BD2DE9F047044688469F
:1009900015464FF000090026002720E0E85D2038CA
:1009A00000F0FF097E2C04DD002408F1010000F0B6
:1009B000FF0841462046FFF739FF002609E009EB12
:1009C00049015D4A02EB4101885DFFF700FF701CA1
:1009D000C6B2062EF3DBA01DC4B2781CC7B2E85D18
:1009E0000028DBD1BDE8F0872DE9F04706460F4629
:1009F000904600250024A14631E018F8090020386F
:100A0000C5B2782E02DD0026781CC7B239463046C2
:100A1000FFF70CFF002407E004EB0511474A505C88
:100A2000FFF7D5FE601CC4B2082CF5DB781CC1B200
:100A30003046FFF7FBFE002408E004EB0511083107
:100A40003E4A505CFFF7C3FE601CC4B2082CF4DBC6
:100A500006F10800C6B209F1010000F0FF0918F81C
:100A600009000028C9D1BDE8F0872DE9F041804692
:100A70000E46174600247D0131464046FFF7D6FE5C
:100A800000BF06E02E49485DFFF7A1FE6D1C601C0B
:100A9000C4B2102CF6DB701CC1B24046FFF7C6FE94
:100AA000002406E02649485DFFF791FE6D1C601C9E
:100AB000C4B2102CF6DBBDE8F0812DE9F05F0646EC
:100AC0000F4690461C46DDF828A04FF0000BE117BA
:100AD00004EB5171C910A4EBC10131B92046E117F3
:100AE00004EB5171C1F3C70506E02046E11704EBA2
:100AF0005171C910491CCDB23D4614E0294630461B
:100B0000FFF794FEB1460AE059460BF1010B1AF8C3
:100B10000100FFF75CFE09F1010000F0FF09C1458B
:100B2000F2DB681CC5B2A542E8DBBDE8F09F00001F
:100B30009C81214200802142442000086C22000850
:100B4000441C000808B50121082000F0DFFDC0208A
:100B5000ADF8000010208DF8030003208DF802008E
:100B600069468D4800F016FBC0218B4800F0BFFBA2
:100B700008BD10B58848006820F0704086490860BC
:100B80000846006840F04050086001208349086032
:100B90008349C1F89801042000F01DF900207F4925
:100BA0000860042000F017F900207D49C1F8980181
:100BB00010BD10B57848006820F070407649086094
:100BC0000846006840F04050086000207349091F43
:100BD00008607349C1F89C01042000F0FCF8012072
:100BE0006E49091F08606E49C1F89C01042000F09D
:100BF000F2F810BD10B500246748006820F070407E
:100C0000654908600846006840F00040086001201F
:100C10006249086000F0DFF801206149C1F89801DD
:100C200000F0D9F807E0601CC4B2FA2C03DDFFF72E
:100C3000C0FF012010BD5948803800680028F2D15B
:100C40005649091F086000BFF4E710B5002053495A
:100C5000091F08605048006820F070404E49086045
:100C60000846006840F04050086000204C49C1F838
:100C70009C01022000F0AFF801204849091F0860DC
:100C8000022000F0A8F800204549C1F8980110BDE5
:100C900010B500204149091F08603F48006820F056
:100CA00070403D4908600846006840F040500860C8
:100CB00001203B49C1F89C01022000F08CF8012082
:100CC0003649091F0860022000F085F800203449E9
:100CD000C1F8980110BD70B504462F48006820F097
:100CE00070402D4908600846006840F04050086098
:100CF00000202A49091F0860002517E0E00927495C
:100D000008606006040E022000F065F80120244906
:100D1000C1F89801022000F05EF800201F49091F69
:100D20000860022000F057F8681CC5B2082DE5DB0A
:100D300070BD70B5054600241748006820F070406B
:100D4000154908600846006840F000400860002629
:100D500017E000201149091F0860022000F03BF84D
:100D600001200F49C1F898016006040E0B48803835
:100D7000006808B1601CC4B2012000F02CF8701C9F
:100D8000C6B2082EE5DB15B9FFF782FF01E0FFF7D9
:100D90005CFF204670BD0000000C01409C81214298
:100DA0000080214210B56FF0040000F074F92E4865
:100DB00000682E49B0FBF1F02D4908700846007814
:100DC00000EB4001C1EBC0104FF6FF7101EAC0001B
:100DD0002849088010BD0146254A12784A434FF041
:100DE000E0235A6100229A611A46126942F0010218
:100DF0001A6100BF4FF0E022106900F001021AB141
:100E000000F48032002AF5D04FF0E022126922F07F
:100E100001024FF0E0231A6100229A6170470146F7
:100E2000144A12884A434FF0E0235A6100229A6123
:100E30001A46126942F001021A6100BF4FF0E02227
:100E4000106900F001021AB100F48032002AF5D0D6
:100E50004FF0E022126922F001024FF0E0231A6104
:100E600000229A61704700000000002000127A0002
:100E70001400002016000020014600BF704700BF8C
:100E8000494A128802F04002002AF9D0C2B2464B09
:100E90001B1D1A80704710B586B00446012144F22C
:100EA000040000F033FC4FF40070ADF81400032090
:100EB0008DF8160018208DF8170005A93B4800F0A2
:100EC00069F94FF48060ADF8140004208DF8170024
:100ED00005A9364800F05EF925208DF800000320B2
:100EE0008DF801008DF8020001208DF8030068469E
:100EF00000F087F801940020ADF80800ADF80A0072
:100F0000ADF80C00ADF810000C20ADF80E0001A9F2
:100F1000254800F0A2FC012240F22551224800F0B1
:100F200034FD0121204800F024FD06B010BD10B5AD
:100F300040F225511C4800F00DFE10B31A4800F095
:100F400089FDC4B21A48008800F40040C8B91848A6
:100F5000008800F4804060B10A2C03D000201449BE
:100F6000088020E01248008840F4004010490880C2
:100F700019E00D2C06D10E48008840F480400C4941
:100F8000088010E00A480088C0F30D0009490C549D
:100F900007480088401C0649088008460088C72882
:100FA00001DD0020088010BD00380140000801402C
:100FB0001C000020340000200948804709480047F1
:100FC000FEE7FEE7FEE7FEE7FEE7FEE7FEE7FEE7F9
:100FD000FEE7FEE704480549054A064B7047000056
:100FE0006F04000831010008600100206007002044
:100FF000600300206003002031490143314A116041
:10100000704770B5002100230F22C47804B32D4C23
:10101000246804F4E064C4F5E064210AC1F1040327
:10102000CA40447804FA03F184781440214309014A
:10103000254C0678A155047804F01F050124AC4026
:1010400005786D11AD0005F1E025C5F8004109E016
:10105000047804F01F050124AC401C4D067876117D
:1010600045F8264070BD1A4A0A400243154B1B1F23
:101070001A60704739B1134A121D12680243114BAE
:101080001B1D1A6006E00F4A121D126882430D4BA9
:101090001B1D1A607047042808D14FF0E021096930
:1010A00041F004014FF0E022116107E04FF0E02130
:1010B000096921F004014FF0E0221161704700003E
:1010C0000000FA050CED00E000E400E080E100E043
:1010D00080FFFF1F10B50446CC48844208D101218F
:1010E000042000F02DFB0021042000F029FB46E045
:1010F000C748844208D10121082000F021FB0021CB
:10110000082000F01DFB3AE0C248844208D10121CA
:10111000102000F015FB0021102000F011FB2EE044
:10112000BD48844208D10121202000F009FB0021A4
:10113000202000F005FB22E0B848844208D10121BC
:10114000402000F0FDFA0021402000F0F9FA16E0FE
:10115000B348844208D10121802000F0F1FA002137
:10116000802000F0EDFA0AE0AE48844207D1012168
:10117000801500F0E5FA0021A01500F0E1FA10BD9D
:1011800010B50121084600F0DBFA0021012000F033
:10119000D7FA10BD2DE9F0410246002500260020B7
:1011A00000230024002791F803C00CF00F0591F8EC
:1011B00003C00CF0100CBCF1000F03D091F802C07A
:1011C0004CEA050591F800C0BCF1000F31D014685D
:1011D00000202BE04FF0010C0CFA00F3B1F800C036
:1011E0000CEA03069E4220D183004FF00F0C0CFA4C
:1011F00003F7BC4305FA03FC4CEA040491F803C06E
:10120000BCF1280F06D14FF0010C0CFA00FCC2F81B
:1012100014C00AE091F803C0BCF1480F05D14FF0AB
:10122000010C0CFA00FCC2F810C0401C0828D1D3F5
:101230001460B1F800C0BCF1FF0F34DD5468002029
:101240002EE000F1080C4FF0010808FA0CF3B1F899
:1012500000C00CEA03069E4221D183004FF00F0C20
:101260000CFA03F7BC4305FA03FC4CEA040491F8BA
:1012700003C0BCF1280F05D100F1080C08FA0CF8E6
:10128000C2F8148091F803C0BCF1480F07D100F1F7
:10129000080C4FF0010808FA0CF8C2F81080401C46
:1012A0000828CED35460BDE8F0814FF6FF7101806D
:1012B000022181700421C1707047024600209368AA
:1012C0000B400BB1012000E0002070470146886808
:1012D00080B2704702460020D3680B400BB101205A
:1012E00000E0002070470146C86880B27047016185
:1012F0007047416170470AB1016100E04161704788
:10130000C16070474FF480320A438261816182611B
:1013100082698269704702460020434B18684FF685
:101320008073184040EA021008433F4B1860704732
:101330003E49C8617047F0B50A46002300240021E9
:10134000002500F00046B6F1004F02D1364EF1699B
:1013500001E0354E7168C0F3034583B200F44016D6
:10136000B6F5401F08D121F070612F4E766826F047
:1013700070662D4F7E6012E000F48016B6F5801F77
:1013800006D1032606FA05F4A14341F0706106E098
:10139000460D360103FA06F6B14341F0706122B101
:1013A000460D360103FA06F6314300F00046B6F169
:1013B000004F02D11C4EF16101E01B4E7160F0BD87
:1013C00030B500228B071C0F0F2303FA04F2164BD3
:1013D00008338C1053F824309343134C08348D1089
:1013E00044F8253023468C1053F824308C07240F02
:1013F00000FA04F423430C4C08348D1044F82530D3
:1014000030BD0A49DC310860704700000008014027
:10141000000C014000100140001401400018014080
:10142000001C01400020014000000140000020425B
:10143000DF48006840F00100DD4908600846406868
:10144000DC490840DA49486008460068DA49084043
:10145000D74908600846006820F4802008600846E4
:10146000406820F4FE0048604FF41F008860704719
:10147000CF49096821F48031CD4A116011460968CD
:1014800021F480211160B0F5803F03D0B0F5802FAA
:101490000ED106E0C649096841F48031C44A1160A2
:1014A00007E0C349096841F4A021C14A116000E086
:1014B00000BF00BF704710B5014600220023002086
:1014C0004A11012A02D1BA4C236806E0022A02D14D
:1014D000B74C236A01E0B64C636A01F01F02012495
:1014E00094401C400CB1012000E0002010BD38B534
:1014F000002000900024002500BF3120FFF7DBFF13
:1015000005460098401C00900098B0F5A06F01D0EF
:10151000002DF2D03120FFF7CEFF08B1012400E00A
:101520000024204638BD01460020A14A106820F062
:10153000F80040EAC10010607047A0490860704799
:10154000024600209A4B586820F47C1042EA0103BE
:101550001843974B58607047984908667047014692
:101560000020934A506820F0030008435060704701
:101570008F48406800F00C007047014600208C4AFC
:10158000506820F0F000084350607047014600208A
:10159000874A506820F4E060084350607047014675
:1015A0000020834A506820F4605040EAC100506037
:1015B000704729B17E4A527A02437D4B5A7204E049
:1015C0007B4A527A82437A4B5A7270477B49D831B0
:1015D0000860704701460020754A506820F440407A
:1015E0000843506070470021714A20321170704AE0
:1015F00082F82010012802D004280AD104E0012139
:101600006B4A2032117005E00521694A20321170C1
:1016100000E000BF00BF7047694908607047644937
:10162000096A0143624A116270476549443908609A
:10163000704730B500210022002400235C4D6D6806
:1016400005F00C0121B1042905D0082923D105E0BA
:101650005C4D056022E05B4D05601FE0544D6D68F8
:1016600005F47012524D6D6805F48034022505EBC7
:1016700092421CB9544D554305600BE04C4D6D68CA
:1016800005F400351DB1504D5543056002E04D4D48
:101690005543056002E04B4D056000BF00BF444D5F
:1016A0006D6805F0F0010909484D6B5C0568DD4087
:1016B00045603F4D6D6805F4E061090A434D6B5C80
:1016C0004568DD4085603A4D6D6805F46051C90A92
:1016D0003E4D6B5C4568DD40C560354D6D6805F479
:1016E0004041890B3A4D6B5CC568B5FBF3F505616C
:1016F00030BD29B12E4A526902432D4B5A6104E094
:101700002B4A526982432A4B5A61704729B1284AB1
:1017100092690243264B9A6104E0254A926982430A
:10172000234B9A61704729B1214AD2690243204B69
:10173000DA6104E01E4AD26982431D4BDA617047C8
:1017400029B11B4AD2680243194BDA6004E0184AF7
:10175000D2688243164BDA60704729B1144A126985
:101760000243134B1A6104E0114A12698243104B81
:101770001A61704712494039086070470F49C864C0
:1017800070470B49C87170470948406A40F0807043
:1017900007494862704701460020054A92680A409E
:1017A0000AB1012000E000207047014988727047AB
:1017B000001002400000FFF8FFFFF6FE000042426A
:1017C0008004424200127A0000093D001E00002001
:1017D0002E00002010B50446FB48844209D10121A7
:1017E0008803FFF7ADFF00214FF48040FFF7A8FF0B
:1017F00032E0F648844209D101214804FFF7ADFFE9
:1018000000214FF40030FFF7A8FF25E0F0488442A4
:1018100009D101218804FFF7A0FF00214FF48020A7
:10182000FFF79BFF18E0EB48844209D10121C8046F
:10183000FFF793FF00214FF40020FFF78EFF0BE02E
:10184000E548844208D101210805FFF786FF002101
:101850004FF48010FFF781FF10BD2DE9F04786B0EF
:1018600005460E460024A24600BFA1460027B089C7
:1018700000B100BF2F462C8A4CF6FF700440F08860
:1018800004432C82AC894EF6F3100440B0883189B1
:101890000843718908430443AC81AC8A4FF6FF408A
:1018A0000440B0890443AC8201A8FFF7C2FEC648D9
:1018B000874202D1DDF810A001E0DDF80CA0A88974
:1018C00000F4004040B10AEBCA0000EB0A10316896
:1018D0004900B0FBF1F807E00AEBCA0000EB0A1080
:1018E00031688900B0FBF1F86420B8FBF0F0040126
:1018F0002009642101FB1089A88900F4004040B14F
:10190000322000EBC900B0FBF1F000F00700044307
:1019100008E0322000EB09106421B0FBF1F000F088
:101920000F0004432C8106B0BDE8F0874FF4165138
:10193000016000218180C18001810C214181002151
:101940008181704710B502460020108A4FF2FF03D4
:1019500018400B884C8823438C882343CC8823432E
:101960001843108210BD0021018041808180C18018
:10197000704721B1828942F40052828104E0828959
:101980004DF6FF731A4082817047F0B5034600247C
:1019900000260025002040F66A17B94200D100BF9A
:1019A0001846C1F3421401F01F06012707FA06F595
:1019B000012C01D10C3004E0022C01D1103000E0E8
:1019C00014301AB107682F43076002E00768AF437D
:1019D0000760F0BD1AB1838A0B43838202E0838AD9
:1019E0008B4383827047028A4FF6F0731A4002825B
:1019F000028A0A430282704782894FF2FF731A40BB
:101A0000828182890A438281704721B1828942F0B2
:101A10000202828104E082894FF6FD731A408281BE
:101A20007047028A4FF6DF731A400282028A0A4325
:101A30000282704721B1028A42F48042028204E0AD
:101A4000028A4BF6FF731A4002827047C1F3080204
:101A50008280704701468888C0F3080070478189FA
:101A600041F0010181817047028BD2B20283028B67
:101A700042EA012202837047028B02F47F42028312
:101A8000028B0A430283704721B1828A42F020020E
:101A9000828204E0828A4FF6DF731A4082827047A6
:101AA00021B1828A42F01002828204E0828A4FF6DB
:101AB000EF731A408282704721B1828A42F0080295
:101AC000828204E0828A4FF6F7731A40828270475E
:101AD00021B1828942F40042828103E08289C2F30B
:101AE0000E028281704721B1828A42F400628282B2
:101AF00004E0828A4FF2FF731A4082827047828A22
:101B00004FF6FB731A408282828A0A4382827047B0
:101B100021B1828A42F00202828204E0828A4FF678
:101B2000FD731A408282704702460020B1F5007FA3
:101B300000D100BF13880B400BB1012000E0002052
:101B4000704701F40072B2F5007F00D100BFCA43B4
:101B50000280704770B50246002400230025002053
:101B600040F66A16B14200D100BFC1F3421501F040
:101B70001F03012606FA03F3012D02D19689334093
:101B800006E0022D02D1168A334001E0968A3340E6
:101B90000C12012606FA04F41688344013B10CB175
:101BA000012000E0002070BD10B50022002340F6A7
:101BB0006A14A14200D100BF0A1201249440A3B2CA
:101BC000DC43048010BD00000038014000440040A8
:101BD00000480040004C00400050004070477047F3
:101BE000704770477047754600F028F8AE4605000C
:101BF0006946534620F00700854618B020B5FFF728
:101C0000E9F9BDE820404FF000064FF000074FF023
:101C100000084FF0000B21F00701AC46ACE8C0090A
:101C2000ACE8C009ACE8C009ACE8C0098D46704713
:101C30000446AFF300802046FEF7C1FA0048704723
:101C4000FC00002000000000000000000000000078
:101C50000000000000000000000000000000000084
:101C600000000000000202FAFAAAAAFFFFAAAAFADC
:101C7000FA020200004272723A7A424B5B5262628E
:101C800013776600203C1CFFFFB0B424243F3FE4E0
:101C9000E4242420020203FFFF0001051D59C1FFB7
:101CA0007F010101000000F8F8484C4F4B4A4848BA
:101CB000F8F80000000000FFFF444444444444445A
:101CC000FFFF0000202424E4E42424243010FFFF3C
:101CD00010F0F000081C1F0B0C0D4F6E341C0F236E
:101CE000607F3F0080C060F8FF070200FFFFE070E8
:101CF0003C1C08000000007F7F0406033F7F40403B
:101D000040787800000000000000000000000000A3
:101D100000000000000000000000000000000000C3
:101D200000000000000000000000000000000000B3
:101D300000000000000000000000000000000000A3
:101D40000000000010218670007E4A4A4A4A4A7EFE
:101D50000000000002FE01407F41417F41417F4180
:101D6000417F40000000FC042424FCA5A6A4FC2420
:101D70002424040080601F808042462A12122A26F2
:101D800042C04000080808FF8848009848280A2CEC
:101D900048D808000242817F0000404242427E4211
:101DA0004242400000504F4A48FF48484800FC006B
:101DB00000FF000000003F0101FF21613F000F40D4
:101DC000807F000000908CA4A4A4A5A6A4A4A4A431
:101DD000948C04000080402018070000003F404021
:101DE00040700000000474D4FFD47404100CB74495
:101DF000B40C04000042437A4342437E4B4B4A4AB0
:101E000042430100080808080808F94A4C4848C835
:101E100008080800404020100C0300002040403F0C
:101E20000000000000202C246474ADA6E4342424B7
:101E30002C2400000024242515150DFE040D171474
:101E400024642400000000F848484C4B4A484848A5
:101E5000F8000000000000FF44444444444444446B
:101E6000FF000000202424E4242424201010FF106C
:101E700010F00000081C0B080C054E24100C032069
:101E8000403F0000080808FF8848009848280A2CAE
:101E900048D808000242817F0000404242427E4210
:101EA0004242400000504F4A48FF48484800FC006A
:101EB00000FF000000003F0101FF21613F000F40D3
:101EC000807F00000807FAAAAEAAAAA8ACABAAFEB7
:101ED0000A02020008088B6A1E0A0A0A0AFE0A0B96
:101EE00008080800106001C63000101010FF101024
:101EF000101000000404FE01004161514D434141B6
:101F000051E101004041CE04008040BE828282BE89
:101F1000C040400000007F20908040432C10102CD7
:101F200043C0400020212EE4000020202020FF207C
:101F3000202020000000007F201008000000FF008B
:101F4000000000000000F848484848FF484848485A
:101F5000F800000000000F040404043F444444441B
:101F60004F40700000000202020202E2120A060262
:101F700000800000010101010141817F0101010197
:101F8000010101000020202222E2222222E222225C
:101F900022202000004020100C030000003F4040A1
:101FA000404070004020F80F82601E1410FF101097
:101FB000101000000000FF000101010101FF0101FC
:101FC00001010100000000007E4848484848484898
:101FD00048CC080000040404040404040424464417
:101FE000201F0000849494FF949480242424FC12E5
:101FF00013120000201806FF021C0A0202023F41D1
:10200000414171001010D0FE509000101010D0FE11
:1020100010101000080601FF000110080443807F23
:10202000000000009088A7A2A6BAA2F8A7A2A6BAAC
:10203000A282800000040404040C340444847F045D
:10204000040400000000000000000000002F000059
:1020500000000700070000147F147F1400242A7F6B
:102060002A120062640813230036495522500000EA
:102070000503000000001C224100000041221C005A
:102080000014083E08140008083E0808000000A0DC
:1020900060000008080808080000606000000020D8
:1020A00010080402003E5149453E0000427F4000B6
:1020B000004261514946002141454B31001814123C
:1020C0007F10002745454539003C4A494930000109
:1020D0007109050300364949493600064949291E58
:1020E00000003636000000005636000000081422BA
:1020F00041000014141414140000412214080002BA
:102100000151090600324959513E007C1211127CDE
:10211000007F49494936003E41414122007F41410B
:10212000221C007F49494941007F09090901003EFD
:102130004149497A007F0808087F0000417F41003B
:10214000002040413F01007F08142241007F4040B1
:102150004040007F020C027F007F0408107F003E99
:102160004141413E007F09090906003E4151215E7F
:10217000007F091929460046494949310001017F7C
:102180000101003F4040403F001F2040201F003F12
:102190004038403F006314081463000708700807C4
:1021A00000615149454300007F41410000552A55D7
:1021B0002A55000041417F00000402010204004052
:1021C0004040404000000102040000205454547874
:1021D000007F484444380038444444200038444494
:1021E000487F00385454541800087E090102001832
:1021F000A4A4A47C007F080404780000447D40006F
:10220000004080847D00007F102844000000417F52
:102210004000007C04180478007C0804047800382E
:102220004444443800FC242424180018242418FCB6
:10223000007C0804040800485454542000043F441F
:102240004020003C4040207C001C2040201C003CE2
:102250004030403C004428102844001CA0A0A07C32
:10226000004464544C44141414141414000000006A
:10227000000000000000000000000000000000F866
:1022800000000000000000333000000000100C06C9
:10229000100C0600000000000000000040C0784064
:1022A000C0784000043F04043F040400007088FC30
:1022B00008300000001820FF211E0000F008F00088
:1022C000E018000000211C031E211E0000F00888F9
:1022D000700000001E2123241927211010160E0063
:1022E000000000000000000000000000000000E00E
:1022F0001804020000000007182040000002041823
:10230000E00000000040201807000000404080F07E
:10231000804040000202010F01020200000000F0B4
:10232000000000000101011F010101000000000088
:102330000000000080B070000000000000000000FD
:102340000000000000010101010101010000000086
:10235000000000000030300000000000000000001D
:1023600080601804006018060100000000E01008FA
:102370000810E000000F102020100F00001010F8CF
:10238000000000000020203F20200000007008080E
:10239000088870000030282422213000003008888E
:1023A000884830000018202020110E000000C020B6
:1023B00010F8000000070424243F240000F80888D7
:1023C000880808000019212020110E0000E0108864
:1023D00088180000000F112020110E000038080896
:1023E000C83808000000003F0000000000708808A6
:1023F00008887000001C222121221C0000E0100827
:102400000810E0000000312222110F00000000C07F
:10241000C00000000000003030000000000000801C
:10242000000000000000806000000000000080400C
:102430002010080000010204081020004040404025
:102440004040400004040404040404000008102078
:1024500040800000002010080402010000704808BD
:102460000808F0000000003036010000C030C82825
:10247000E810E0000718272423140B000000C038E0
:10248000E0000000203C23020227382008F888885A
:1024900088700000203F202020110E00C030080866
:1024A00008083800071820202010080008F808083D
:1024B0000810E000203F202020100F0008F8888836
:1024C000E8081000203F20202320180008F8888802
:1024D000E8081000203F200003000000C03008087A
:1024E0000838000007182020221E020008F8080003
:1024F0000008F808203F210101213F20000808F8CA
:10250000080800000020203F2020000000000808EC
:10251000F8080800C08080807F00000008F888C0AC
:1025200028180800203F20012638200008F808005D
:1025300000000000203F20202020300008F8F80094
:10254000F8F80800203F003F003F200008F830C0A6
:102550000008F808203F200007183F00E010080896
:102560000810E0000F10202020100F0008F80808C5
:102570000808F000203F210101010000E0100808D8
:102580000810E0000F18242438504F0008F88888FD
:1025900088887000203F2000030C302000708808DD
:1025A000080838000038202121221C00180808F8EB
:1025B000080818000000203F2000000008F808006C
:1025C0000008F808001F202020201F00087888003D
:1025D00000C83808000007380E010000F80800F8AD
:1025E0000008F800033C0700073C03000818688057
:1025F0008068180820302C03032C30200838C800CD
:10260000C83808000000203F20000000100808081B
:10261000C83808002038262120201800000000FEBD
:10262000020202000000007F40404000000C30C069
:1026300000000000000000010638C0000002020295
:10264000FE000000004040407F0000000000040247
:102650000202040000000000000000000000000072
:102660000000000080808080808080800002020462
:10267000000000000000000000000000000080805A
:10268000808000000019242222223F2008F80080C8
:1026900080000000003F112020110E00000000808B
:1026A00080800000000E112020201100000000801A
:1026B0008088F800000E112020103F20000080804C
:1026C00080800000001F222222221300008080F060
:1026D000888888180020203F20200000000080808B
:1026E00080808000006B94949493600008F80080D0
:1026F00080800000203F210000203F20008098982B
:10270000000000000020203F20200000000000808A
:102710009898000000C08080807F000008F80000CA
:1027200080808000203F24022D302000000808F81F
:10273000000000000020203F2020000080808080DA
:1027400080808000203F20003F20003F808000806C
:1027500080800000203F210000203F20000080807A
:1027600080800000001F202020201F00808000802B
:102770008000000080FFA12020110E0000000080DA
:1027800080808000000E112020A0FF8080808000CB
:102790008080800020203F212000010000008080F8
:1027A000808080000033242424241900008080E0ED
:1027B000808000000000001F2020000080800000BA
:1027C00000808000001F202020103F20808080009B
:1027D0000080808000010E300806010080800080AB
:1027E000008080800F300C030C300F0000808000D0
:1027F000808080000020312E0E31200080808000FB
:102800000080808080818E701806010000808080AA
:10281000808080000021302C222130000000000048
:10282000807C020200000000003F404000000000E9
:10283000FF00000000000000FF0000000002027C1A
:10284000800000000040403F000000000006010141
:102850000202040400000000000000007C280008C0
:1028600000000020340000006C010008B0280008BF
:10287000340000202C0700008801000800A24A0450
:102880000000000000000000010203040607080920
:102890000000000000000000000000000000010235
:1028A00003040102030406070809020406080000E5
:0400000508000131BD
:00000001FF
